:100000000C946F240C94A0240C94A0240C94A02491
:100010000C94A0240C94A0240C94A0240C94A02450
:100020000C94A0240C94A0240C94A0240C94A02440
:100030000C94A0240C94C3AC0C94A0240C94A02485
:100040000C94A0240D94BB570C94A0240C94A024D1
:100050000C94A0240C94A0240D942F4F0C94EECB60
:100060000C94A0240C94D9450C94CF450C94A02456
:100070000C94A0240C94A0240C94A0240C94A024F0
:100080000C94803D0C94A0240C94A0240C94A024E7
:100090000C94A0240C94A0240C94A0240C94A024D0
:1000A0000C94A0240C94A0240C94523D0C94A024F5
:1000B0000C94A0240C94A0240C94A0240C94A024B0
:1000C0000C94A0240C94A0240C94A0240C94A024A0
:1000D0000C94A0240C94A0240C94A0240C94A02490
:1000E0000C94A024F653FD53B054B8550A57135737
:1000F00023572E8E318E208E248E2A8E688E358E3A
:10010000398E3F8E438E478E4D8E518E558E688E22
:100110005B8E5F8E638EC08EC58ECA8ED48EDE8E51
:10012000578FE88EF08EF88E028F0C8F168F258FEA
:100130002F8F578F398F438F4D8F26029C027E025F
:10014000C8027E027E027E027E027E027E027E0265
:100150007E027E027E027E027E027E027E027E029F
:100160007E027E027E027E027E027E027E027E028F
:100170007E027E027E02BA017E027E027E027E0244
:100180007E027E027E027E0252027E027E027E029B
:100190007E027E027E027E027E027E027E02A40239
:1001A0008801084AD73B3BCE016E84BCBFFDC12FFE
:1001B0003D6C74319ABD56833DDA3D00C77F11BE58
:1001C000D9E4BB4C3E916BAAAABE000000803F055B
:1001D000A84CCDB2D44EB93836A9020C50B991868C
:1001E00088083CA6AAAA2ABE000000803F076342F6
:1001F00036B79BD8A71A39685618AEBAAB558C1DBE
:100200003CB7CC5763BD6DEDFD753EF6177231BF3F
:10021000000000803F08000000BE922449123EAB5F
:10022000AAAA2ABECDCCCC4C3E00000080BEABAA10
:10023000AAAA3E00000000BF000000803F000000AE
:100240000000084178D3BB4387D1133D190E3CC34E
:10025000BD4282AD2B3E68EC8276BED98FE1A93ECD
:100260004C80EFFFBE01C4FF7F3F00000000000094
:100270000C94B8550C945F8E0C94028F0C945B8E8A
:100280000C9446B50C9498C30C94F7DA0C9414783B
:100290000C94B0540C9413AC0C949BB50C94E9AB37
:1002A0000C942E8E0C94438F0C94CA8E0C94D3C451
:1002B0000C942D940C94CDCF0C94A1990C945E7455
:1002C0000C943F8E0C943F920C94D3940C94B2995E
:1002D0000C94E7950C94208E0C94558E0C9460C26F
:1002E0000C947C990C9452C40D949D2F0C9462C371
:1002F0000C9496C60D94A0310C94638E0C949B992B
:100300000C94ABFC0C94B5940C94A3990C94B1D4BC
:100310000D94A0280C94BACD0D94032F0C947E92CA
:100320000C94DE8E0C941E940C94C7940C9497B588
:100330000C948B940C945B750C94578F0C940A5707
:100340000C9498C60C94F88E0C942EC20C94DBC2BC
:100350000C9403750D94DE330D941C2F0D94F02E28
:100360000C944D8F0C941A780C94168F0C941BCA15
:100370000C94CA990D94E3290C94FED20C94A4C356
:100380000C94688E0D94A62F0C94D7910C946DACA0
:100390000C94C3D30C94ECCE0C9451750D94AD76A3
:1003A0000C943F750C94A1910C94B5D40C94305BD3
:1003B0000D9403280C9441AC0C94A3750C94F29109
:1003C0000C9423D10C94518E0C94CDD90C94C58EE1
:1003D0000C943C940C94BB940C9485C30C940C8F9B
:1003E0000C94AF940C9467CA0C9465750C9478D6F1
:1003F0000C9486910C9484750C9425FA0C94D48EEC
:100400000C9476780C94A6FE0C9497920C943BCDA9
:100410000C94A4C60C9494790C942A8E0C9494C6D3
:100420000D94C72F0D94B12E0C94B9DC0C94438E0F
:100430000C9494940D942A2F0C946B910C94F9774E
:100440000C94C9C80C94ACB50C94065B0D94AD2902
:100450000C94B7D40C94398E0C9460750C9456752A
:100460000C94C4CD0C94F6530C94F08E0C949FCA4B
:100470000C949D990C94FD530C947F780C944B94A0
:100480000C94A9940C940B920D948C2A0C949EC6F7
:100490000C94BD780D94F3270C9465920C94358ED2
:1004A0000C9469740D94BC290D940C360C949F998E
:1004B0000C94055B0C9430FA0C94B3D40C94318EEC
:1004C0000C94E1740C94258F0C94E88E0C94A394F6
:1004D0000C9456970C94478E0D94D32F0C94CD9476
:1004E0000C9452920C94925B0C94FB740C944B758C
:1004F0000C9413570C94BC910C94BFCD0D94A3286D
:100500000D9418000D94507E0C9445750C94087849
:100510000D94F0270C946EFA0D94F6270C942F8FFF
:100520000D94A82F0C945F7A0C9403780D94E31427
:100530000C94B0920C94F2CE0D946A280C9403D0D3
:100540000D94CD2F0C9424920D94002A0D94B42F69
:100550000C94AAFA0D94492F0C94D97B0C94235730
:100560000C94398F0C9439750C94C08E0C94D0C8AF
:100570000C94095B0D94F74E0C94248E0C946DF939
:100580000C94FE770C9438CC0C94B0B50C94C194B8
:100590000D94E9290C944D8E4E414E494E495459C3
:1005A000494E46CDCCCC3D0AD7233C17B7D138773E
:1005B000CC2B329595E6241FB14F0A000020410054
:1005C00000C84200401C4620BCBE4CCA1B0E5AAE9E
:1005D000C59D7400407A10F35A00A0724E180900AD
:1005E00010A5D4E80000E87648170000E40B540298
:1005F0000000CA9A3B000000E1F5050000809698D3
:1006000000000040420F000000A086010000001022
:100610002700000000E80300000000640000000064
:10062000000A00000000000100000000002C76D845
:1006300088DC674F0823DFC1DFAE59E1B1B796E52B
:10064000E3E453C63AE651997696E8E6C28426EB8F
:10065000898C9B62ED407C6FFCEFBC9C9F40F2BAA2
:10066000A56FA5F490055A2AF75C936B6CF9676D3A
:10067000C11BFCE0E40D47FEF520E6B500D0ED908F
:100680002E0300943577050080841E080000204E5C
:100690000A000000C80C333333330F986E128311F5
:1006A00041EF8D2114893BE65516CFFEE6DB18D1CC
:1006B000844B381BF77C1D901DA4BBE4242032849E
:1006C000725E228100C9F124ECA1E53D274C45561C
:1006D000454C494E4700434F4D4D554E49434154BB
:1006E000494F4E0044525952554E004552524F52B6
:1006F0005300494E464F004543484F0047322F476D
:10070000332062616420706172616D65746572731B
:100710000A00536C6565702E2E2E00205A3A200078
:1007200020593A200042656420583A20004D6573F4
:100730006820706F696E74206F7574206F66207208
:10074000616E67650A00436C69636B20746F2052A9
:100750006573756D652E2E2E004E6F204D6F76657C
:100760002E00456E642066696C65206C6973740A9E
:1007700000426567696E2066696C65206C697374F8
:100780000A004E6F206D656469610A00286E6F2053
:1007900066696C65290043757272656E74206669BE
:1007A0006C653A20005344207072696E74696E67FC
:1007B000206279746520004E6F742053442070725B
:1007C000696E74696E670A0044656C6574696F6E62
:1007D000206661696C65642C2046696C653A20006E
:1007E00046696C652064656C657465643A002569CA
:1007F0007920256964202569682025696D2025698F
:1008000073005072696E742074696D653A200045FA
:10081000202553006F66660044454255473A004D17
:100820003131322053687574646F776E004D313109
:100830003320530042656420436F6F6C696E672EEE
:100840002E2E004265642048656174696E672E2E05
:100850002E003344205072696E746572204F4646F4
:100860002E004348414D4245525F54454D5045523C
:100870004154555245004241425953544550504904
:100880004E470041524353004D4F54494F4E5F4D28
:100890004F44455300544845524D414C5F50524FD0
:1008A00054454354494F4E004C4F4E475F46494CC8
:1008B000454E414D45004155544F5245504F5254BD
:1008C0005F53445F53544154555300534443415282
:1008D000440050524F4D50545F535550504F525456
:1008E00000454D455247454E43595F50415253458F
:1008F0005200434153455F4C494748545F42524977
:100900004748544E45535300544F47474C455F4C5E
:10091000494748545300534F4654574152455F503E
:100920004F574552004255494C445F50455243454C
:100930004E54004C4556454C494E475F4441544146
:10094000005A5F50524F42450052554E4F55540089
:100950004155544F4C4556454C005052494E545FFA
:100960004A4F420050524F4752455353004155544D
:100970004F5245504F52545F54454D5000564F4CC6
:10098000554D45545249430042494E4152595F46E4
:10099000494C455F5452414E5346455200534552CF
:1009A00049414C5F584F4E5F584F464600464952AA
:1009B0004D574152455F4E414D453A4D61726C690C
:1009C0006E20322E302E372E3220284E6F76203178
:1009D0003920323032302031363A35373A32312907
:1009E00020534F555243455F434F44455F55524C4A
:1009F0003A68747470733A2F2F6769746875622E41
:100A0000636F6D2F4D61726C696E4669726D7761AF
:100A100072652F4D61726C696E2050524F544F4376
:100A20004F4C5F56455253494F4E3A312E30204D70
:100A3000414348494E455F545950453A334420504C
:100A400072696E7465722045585452554445525F20
:100A5000434F554E543A3120555549443A636564E5
:100A600065326132662D343161322D343734382DA0
:100A7000396231322D633535633632663336376647
:100A8000660A002F2F20004D31343520533C696E0B
:100A90006465783E206F7574206F662072616E67A2
:100AA000652028302D31290A00416363656C657229
:100AB0006174696F6E3A2050003F4A206F75742050
:100AC0006F662072616E67652028302E3031207489
:100AD0006F20302E33290A0020204D61783A200003
:100AE00020204D696E3A2000536F667420656E6455
:100AF00073746F70733A200046523A0020466C6F50
:100B0000773A200020536572766F200020643A0007
:100B100020693A0020703A006469730043290A0092
:100B200061626C656420286D696E2074656D70204B
:100B300000436F6C6420657874727564657320611E
:100B40007265200046696C616D656E742072756E09
:100B50006F757420004D34323120696E636F72728C
:100B600065637420706172616D6574657220757360
:100B70006167650A004F6666736574732041707023
:100B80006C696564004572723A20546F6F2066612B
:100B9000722100546F6F206661722066726F6D2043
:100BA0007265666572656E636520706F696E740A42
:100BB00000454550524F4D204F4B0A00446F6E6523
:100BC000207072696E74696E672066696C650A00D0
:100BD0004D3737004D333100F706F206EB06E406D9
:100BE000D606CD0650726F746563746564205069D3
:100BF0006E0A005A5F6D6F76655F636F6D700A00F5
:100C00003E3E3E207365745F617869735F6E657602
:100C100065725F686F6D656428003C3C3C207365BD
:100C2000745F617869735F6E657665725F686F6D1A
:100C3000656428004572726F722077726974696EFC
:100C40006720746F20454550524F4D210A002121E5
:100C5000204B494C4C206361757365642062792098
:100C6000746F6F206D75636820696E616374697657
:100C7000652074696D65202D2063757272656E74D0
:100C800020636F6D6D616E643A20004D3431300029
:100C90004D313132004D313038004E6F20436865A0
:100CA000636B73756D2077697468206C696E65205D
:100CB0006E756D6265722C204C617374204C696E88
:100CC000653A2000636865636B73756D206D6973A9
:100CD0006D617463682C204C617374204C696E657F
:100CE0003A20004C696E65204E756D626572206910
:100CF00073206E6F74204C617374204C696E652094
:100D00004E756D6265722B312C204C617374204CD2
:100D1000696E653A20004D313130005344207265D0
:100D20006164206572726F720A00627573793A208D
:100D300070617573656420666F7220696E7075747A
:100D40000A00627573793A20706175736564206674
:100D50006F7220757365720A00627573793A20703C
:100D6000726F63657373696E670A004D65646961CC
:100D70002052656D6F766564004D65646961204938
:100D80006E736572746564004D373600506C656132
:100D90007365205265736574005052494E54455234
:100DA0002048414C5445440025533A202553004BDC
:100DB000494C4C45442E20005072696E7465722077
:100DC00068616C7465642E206B696C6C28292063E3
:100DD000616C6C6564210A0053544F505045442E99
:100DE00020005072696E7465722073746F70706544
:100DF000642064756520746F206572726F72732E43
:100E00002046697820746865206572726F7220616F
:100E10006E6420757365204D39393920746F2072E6
:100E20006573746172742E202854656D70657261EB
:100E3000747572652069732072657365742E205312
:100E400065742069742061667465722072657374BC
:100E5000617274696E67290A006563686F3A0045BC
:100E600072726F723A003F3F3F2059696B65732180
:100E700020204E414E20696E206765745F7A5F6363
:100E80006F7272656374696F6E280029203D2000BF
:100E900020726177206765745F7A5F636F72726535
:100EA0006374696F6E2800203A202E2E2E4E6F77C5
:100EB000204F4E0A00203A204C6576656C696E67BB
:100EC000204F46460A00203A202E2E2E4E6F7720C5
:100ED0004F46460A00203A204C6576656C696E677D
:100EE000204F4E0A0020204D34323120490020206E
:100EF00047323920493939390A00616374697665A6
:100F00000A002053797374656D2076312E303120BC
:100F1000002020207C0A004E414E0020202E202060
:100F20002000207C004C43443A0A004353563A0ABE
:100F30000020666F7220003A0A0A000A42656420A7
:100F4000546F706F677261706879205265706F724C
:100F50007400205472696767657265642065617208
:100F60006C792E00204E6F20747269676765722E4F
:100F7000002050726F6265206661696C21202D002F
:100F8000534C4F570050726F62653A3A72756E5FFC
:100F90007A5F70726F62650050726F62696E67206F
:100FA0004661696C65640A0050726F62696E672001
:100FB0004661696C656400506F736974696F6E2077
:100FC0004E6F7420526561636861626C650A005FF0
:100FD00072656C6174697665290A0050726F62658A
:100FE0003A3A70726F62655F61745F706F696E74B8
:100FF000004731205A3130204631323030300A47F4
:10100000312058313520593333300A4731205A3096
:101010002E350A4731205A3130005A2050726F6203
:101020006520456E64205363726970743A200044F1
:101030006F6E652E0A003F496E76616C696420739D
:10104000746F7261676520736C6F742E0A3F5573FD
:1010500065203020746F20004732392050322066DE
:10106000696E69736865642E0A005859206F75743B
:1010700073696465207072696E7461626C65207258
:1010800061646975732E0A003F4572726F72206940
:101090006E20427573696E657373204361726420BC
:1010A0006D6561737572656D656E742E0A004D61B4
:1010B0006E75616C6C792070726F62696E672075F5
:1010C0006E726561636861626C6520706F696E74D1
:1010D000732E0A0050726F62696E672061726F75BD
:1010E0006E642028004D65736820696E76616C69B6
:1010F00064617465642E2050726F62696E67206D42
:101100006573682E0A004D657368207A65726F6595
:10111000642E0A0044656661756C742073746F7286
:1011200061676520736C6F7420302073656C656334
:101130007465642E0A004C6F6164696E6720746583
:1011400073745F7061747465726E2076616C75651E
:10115000732E0A0A00496E76616C696420746573A7
:10116000745F7061747465726E2076616C75652E43
:1011700020282D3120746F2032290A0A004C6F6319
:101180006174696F6E7320696E76616C69646174F5
:1011900065642E0A0A00456E74697265204D657398
:1011A0006820696E76616C6964617465642E0A0AF0
:1011B00000656E7175657565696E672022006F6BDD
:1011C00000526573656E643A200023646566696E3B
:1011D000652044454641554C545F004B6420004B0C
:1011E0006920004B702000504944204175746F7491
:1011F000756E652066696E69736865642120507537
:101200007420746865206C617374204B702C204BC3
:101210006920616E64204B6420636F6E7374616E2D
:1012200074732066726F6D2062656C6F7720696ED3
:10123000746F20436F6E66696775726174696F6E53
:101240002E680A00504944204175746F74756E65AC
:10125000206661696C6564212074696D656F7574C1
:101260000A000A20436C617373696320504944206B
:101270000A00204B643A2000204B693A2000204BA2
:10128000703A20000A204E6F206F76657273686F87
:101290006F740A002054753A2000204B753A2000E4
:1012A000206D61783A2000206D696E3A200020643C
:1012B0003A200020626961733A200050494420417D
:1012C00075746F74756E652073746172740A005062
:1012D0004944204175746F74756E65206661696C50
:1012E0006564212054656D70657261747572652046
:1012F000746F6F20686967680A005049442041751F
:10130000746F74756E6500504944204175746F7434
:10131000756E65206661696C656421204261642098
:101320006578747275646572206E756D6265720A97
:10133000004572723A207574663820666F6E7420AC
:101340006E6F7420696E697469616C697A65642E68
:1013500000000C0F00FE07022503BB017FFE08FE04
:1013600008FE05080806000040F0C8888898781034
:10137000050808060000C0F88888888888F80505F0
:10138000050600012030F83020050808060000207E
:1013900070F820202020E00509090600FF2070A831
:1013A000A8B888887020070505070001D86C366C3E
:1013B000D80509090600FFF8A88888888888A8F851
:1013C000050A0A0600FE205050505088A8A88870D0
:1013D00003030306000340A040FFFFFFFFFFFFFFE2
:1013E000FFFFFFFFFFFFFFFFFFFFFFFFFFFFFF000C
:1013F00000000605FF01070706020080808080804C
:101400000080030303060105A0A0A0050606060050
:101410000050F85050F8500509090600FF2070A848
:10142000A07028A87020050707060000C8C8102073
:1014300040989805070706000040A0A040A89068C3
:101440000103030602058080800309090601FF20CD
:1014500040408080804040200309090601FF804011
:101460004020202040408005070706000020A8708B
:101470002070A8200505050600012020F820200284
:1014800003030601FFC04080050101060003F802C6
:101490000202060100C0C005070706000008101080
:1014A00020404080050707060000708898A8C8887B
:1014B0007003070706010040C040404040E00507B8
:1014C00007060000708808102040F805070706008E
:1014D00000F8081030088870050707060000103073
:1014E0005090F81010050707060000F880F0080873
:1014F0008870050707060000304080F08888700576
:101500000707060000F8081010202020050707062E
:1015100000007088887088887005070706000070D2
:10152000888878081060020505060100C0C000C068
:10153000C00206060601FFC0C000C04080030505CA
:101540000601012040804020050303060002F80048
:10155000F8030505060101804020408005070706C5
:10156000000070881020200020050707060000708A
:1015700088B8A8B88070050707060000708888F84A
:10158000888888050707060000F04848704848F03A
:1015900005070706000070888080808870050707AF
:1015A000060000F04848484848F0050707060000D4
:1015B000F88080F08080F8050707060000F880803A
:1015C000F08080800507070600007088808098887A
:1015D00070050707060000888888F8888888030750
:1015E00007060100E04040404040E00507070600D4
:1015F0000038101010109060050707060000889052
:10160000A0C0A09088050707060000808080808029
:1016100080F805070706000088D8A888888888050C
:1016200007070600008888C8A89888880507070665
:10163000000070888888888870050707060000F019
:101640008888F080808005070706000070888888F9
:10165000A89068050707060000F08888F0A0908829
:101660000507070600007088807008887005070766
:10167000060000F820202020202005070706000093
:101680008888888888887005070706000088888809
:101690008850502005070706000088888888A8A879
:1016A00050050707060000888850205088880507E5
:1016B0000706000088885020202020050707060024
:1016C00000F80810204080F80309090601FFE080B7
:1016D000808080808080E005070706000080404011
:1016E000201010080309090601FFE0202020202017
:1016F0002020E005030306000520508805010106AF
:1017000000FEF803030306010580402005050506D9
:10171000000070087888780507070600008080F0D0
:10172000888888F0050505060000708080887005AF
:1017300007070600000808788888887805050506E8
:1017400000007088F08070050707060000304840F0
:10175000E04040400507070600FE7088888878084A
:10176000700507070600008080F0888888880307D6
:10177000070601004000C0404040E004090906019E
:10178000FE100030101010109060050707060000D2
:1017900080808890E09088030707060100C04040E1
:1017A000404040E0050505060000D0A8A8A8A8050F
:1017B0000505060000B0C8888888050505060000F4
:1017C00070888888700507070600FEF0888888F012
:1017D00080800507070600FE788888887808080555
:1017E0000505060000B0C8808080050505060000DC
:1017F00078807008F00507070600002020F82020F8
:1018000020180505050600008888889868050505E4
:101810000600008888885020050505060000888895
:10182000A8A8500505050600008850205088050727
:10183000070600FE888888502040800505050600C0
:1018400000F8102040F80309090601FF204040403D
:1018500080404040200109090602FF80808080808E
:10186000808080800309090601FF804040402040BD
:1018700040408005030306000248A890FF21212074
:1018800053544F502063616C6C65642062656361E2
:10189000757365206F6620424C546F7563682065D0
:1018A00072726F72202D207265737461727420776A
:1018B000697468204D3939390A00424C546F756398
:1018C00068205265636F76657279204661696C6540
:1018D000640A00626C746F7563682E73746F775F4F
:1018E00070726F63282920656E640A00424C546F41
:1018F00075636820414C41524D206F72205452490B
:10190000474745522061667465722053544F572CE7
:10191000207265636F766572696E670A00424C5487
:101920006F7563682053544F5720726571756573E6
:101930007465640A004732362048656174696E67D1
:10194000204E6F7A7A6C65004732362048656174A4
:10195000696E67204265640057616974696E67202B
:10196000666F72206865617475702E0A004669782A
:101970006564204C656E677468205072696D6500FF
:10198000446F6E65205072696D696E67004D616EBF
:1019900075616C207072696D696E672E2E2E00471E
:1019A00032362043616E63656C6564004C65617618
:1019B000696E6720473236003F5370656369666918
:1019C000656420582C5920636F6F7264696E61746E
:1019D00065206F7574206F6620626F756E64732E5C
:1019E0000A003F28522965706561742076616C7524
:1019F00065206E6F7420706C61757369626C653BF5
:101A0000206D757374206265206174206C6561734C
:101A10007420312E0A003F537065636966696564FE
:101A2000206E6F7A7A6C652074656D706572617472
:101A3000757265206E6F7420706C61757369626C6D
:101A4000652E0A003F5370656369666965642066A8
:101A5000696C616D656E742073697A65206E6F7450
:101A600020706C61757369626C652E0A003F53705B
:101A700065636966696564207072696D65206C656F
:101A80006E677468206E6F7420706C617573696224
:101A90006C652E0A003F5370656369666965642052
:101AA0006E6F7A7A6C652073697A65206E6F742028
:101AB000706C61757369626C652E0A003F526574C3
:101AC00072616374696F6E204D756C7469706C69B6
:101AD0006572206D7573742062652073706563692B
:101AE000666965642E0A003F5370656369666965BF
:101AF000642052657472616374696F6E204D756CF9
:101B00007469706C696572206E6F7420706C617599
:101B10007369626C652E0A003F537065636966697C
:101B20006564206C617965722068656967687420F6
:101B30006E6F7420706C61757369626C652E0A003B
:101B400043292E0A003F5370656369666965642006
:101B50006265642074656D7065726174757265206C
:101B60006E6F7420706C61757369626C65202834C7
:101B7000302D00473236207374617274696E672E9F
:101B80002E2E0A0043616E63656C004D38340043AD
:101B9000616E6E6F7420656E746572207375626419
:101BA00069723A2000022E2E002533642525202557
:101BB0003364252500562D746F6F6C732057657242
:101BC0006520526573657400526573657420562DE7
:101BD000746F6F6C7300546F67676C65204D697824
:101BE000002533643B253364252500416374697601
:101BF0006520562D746F6F6C00486F74656E64209D
:101C0000746F6F20636F6C640050726F63656564FE
:101C10000044697361626C6520537465707065720D
:101C200073004175746F20486F6D6500202F002090
:101C300042403A0020403A007C3C3E5E2B3D3F2F24
:101C40005B5D3B2C2A225C005072696E74206672C8
:101C50006F6D204D65646961004D6F766520257359
:101C60006D6D004D6F766520302E316D6D004D6FBE
:101C7000766520316D6D004D6F76652031306D6D6C
:101C8000004D6F76652041786973004578747275F0
:101C9000646572004D6F7665205A004D6F76652041
:101CA00059004D6F766520580020573A0000000A11
:101CB0000B02090C0D0E08070304010000000000D0
:101CC0000000000000000000000000000000000014
:101CD00000000000000000000012111000000000D1
:101CE00000000000000000000000000000000000F4
:101CF00000000050726F62652059204F6666736560
:101D0000740050726F62652058204F666673657468
:101D100000452073746570732F6D6D005A205374E5
:101D20006570732F6D6D00592053746570732F6D3E
:101D30006D00582053746570732F6D6D00496E6986
:101D400074004D3432380046696C616D656E740004
:101D500050726F6265204F666673657473004A75D2
:101D60006E6374696F6E2044657600416363656CD1
:101D700065726174696F6E0056656C6F6369747922
:101D80000053657420486F6D65204F6666736574F7
:101D9000730053746F77004465706C6F790053570C
:101DA0002D4D6F64650053656C662D54657374002A
:101DB0005374616E6461726420446576696174690C
:101DC0006F6E3A20004D65616E204D657368204846
:101DD00065696768743A200023206F662073616D1F
:101DE000706C65733A20000A4D657368206F6E6CE5
:101DF00079207061727469616C6C7920706F707594
:101E00006C617465642E0A0A0050726F62696E67B5
:101E100020506F696E74000A50726F62696E67209D
:101E20006D65736820706F696E74200020616E6448
:101E30002074616B652061206D6561737572656DDD
:101E4000656E742E0A006D6D20746869636B2E0ACE
:101E500000427573696E6573732043617264206913
:101E600073200052656D6F76652026204D65617385
:101E7000757265204265640052656D6F76652073EA
:101E800068696D00506C616365207368696D2075C9
:101E90006E646572206E6F7A7A6C65004D6573684A
:101EA00020506F696E74204D656173757265642092
:101EB00061743A20000A4D657368206F6E6C79205A
:101EC0007061727469616C6C7920706F70756C618F
:101ED0007465642E0A00506C616365205368696DF7
:101EE0002026204D656173757265004D6F76696EB1
:101EF0006720746F206E657874004D6573682045A7
:101F0000646974696E672053746F7070656400440F
:101F10006F6E652045646974696E67204D657368EE
:101F20000A00446F6E652045646974696E67204DD0
:101F30006573680046696E652054756E696E67202A
:101F40004D6573680028582C5929206F7574736982
:101F50006465207072696E7461626C652072616480
:101F60006975732E0A004F6666736574206F757409
:101F7000206F6620626F756E64732E202830207487
:101F80006F2031306D6D290A0A00496E76616C69E7
:101F900064206D617020747970652E0A0A003F28F4
:101FA00046296164652068656967687420666F7298
:101FB00020426564204C6576656C20436F727265C3
:101FC0006374696F6E206E6F7420706C61757369D5
:101FD000626C652E0A0A003F43616E2774206163BC
:101FE00074697661746520616E64206465616374F0
:101FF0006976617465206174207468652073616D11
:10200000652074696D652E0A0A00426F7468205855
:1020100020262059206C6F636174696F6E73206D88
:1020200075737420626520737065636966696564A1
:102030002E0A0A003F496E76616C696420677269F6
:10204000642073697A6520284A2920737065636962
:10205000666965642028322D39292E0A0A003F2836
:102060005029686173652076616C756520696E76AC
:10207000616C69642028302D36292E0A0A003F2819
:1020800056296572626F7365206C6576656C206990
:102090006D706C61757369626C652028302D342910
:1020A0002E0A0A003F285229657065746974696FA9
:1020B0006E20636F756E7420696E76616C69642042
:1020C00028312B292E0A0A00446F696E6720473297
:1020D00039002053697A653A200043616E6E6F744F
:1020E000206F70656E2073756264697220005344BE
:1020F00020496E6974204661696C00534420636115
:102100007264206F6B0A006F70656E526F6F74207F
:102110006661696C65640A00766F6C756D652E6921
:102120006E6974206661696C65640A004E6F2053A5
:102130004420636172640A004D3234004D32332012
:102140002573006F70656E206661696C65642C2074
:1021500046696C653A200046696C652073656C655C
:10216000637465640A0046696C65206F70656E650E
:10217000643A2000454E4420535542524F5554492D
:102180004E450A002220706F730022207061726534
:102190006E743A2200535542524F5554494E4520D1
:1021A00043414C4C207461726765743A2200537548
:1021B0006263616C6C204F766572666C6F77004568
:1021C00078636565646564206D617820535542527B
:1021D0004F5554494E452064657074683A310A0081
:1021E00057726974696E6720746F2066696C653A0E
:1021F0002000667265736800646F696E67004E6FD9
:10220000772000025072696E7420506175736564A6
:10221000003F00496E697469616C697A65204545C3
:1022200050524F4D003344205072696E74657220D5
:1022300052656164792E005072696E74696E672E02
:102240002E2E005072696E742041626F7274656444
:10225000004D32350050617573696E672E2E2E0069
:10226000454550524F4D2056657273696F6E20453B
:1022700072726F7200454550524F4D20496E646531
:1022800078204572726F7200454550524F4D204381
:102290005243204572726F720049676E6F7265001B
:1022A0006F70656E00545249474745524544006679
:1022B000696C616D656E74007A5F6D696E00795F3F
:1022C0006D696E00785F6D696E005265706F727433
:1022D000696E6720656E6473746F702073746174C7
:1022E00075730A00000020002300260029002C003E
:1022F0002F003200000100000301060109015465AE
:102300006D7065726174757265004D61696E005023
:10231000726568656174202420456E6400507265A2
:102320006865617420242042656400436F6F6C64AB
:102330006F776E0050726568656174202400466195
:102340006E205370656564207E00466C6F77005A7E
:102350002056616C7565004732380A4D313930209E
:102360005325690A4D313039205325690A473239DE
:10237000205031004265642054656D7000486F74D0
:10238000656E642054656D700047323920503620E8
:1023900043202D0048656967687420416D6F756E34
:1023A000740070012C0190012701B0012201C001CD
:1023B0001D01F00118011002130130020E0160022C
:1023C000090190020401C002FF000003FA0040036B
:1023D000F5008003F000D003EB002004E600700459
:1023E000E100E004DC004005D700C005D200400653
:1023F000CD00D006C8008007C3003008BE00F0083A
:10240000B900C009B400B00AAF00B00BAA00D00CEC
:10241000A500000EA000500F9B00C01096005012A7
:10242000910000148C00C0158700B0178200B0190D
:102430007D00D01B7800001E730040206E009022AB
:102440006900F024640040275F0090295A00E02BC7
:102450005500102E500020304B0010324600E03363
:10246000410090353C001037370070383200A039F9
:102470002D00B03A2800A03B2300603C1E00103D18
:102480001900903D1400103E0F00703E0A00C03E3F
:102490000500003F0000403FFBFF803FF6FFC03FCC
:1024A000F1FF01FFFFFFFFFFFFFFFFFFFFFFFFFF48
:1024B0000FFFFFFFFFFFFFFFFFFFFFFFFFFF1E00FC
:1024C00000000000000000000007FFFF38000000CF
:1024D0000000000000000003FFFF7000000000008B
:1024E000000000000001FFFF60000000000000008D
:1024F00000000000FFFF600000000000000000007E
:1025000000007FFFC0000000000000000078000015
:102510003FFFC00FC0FC00000000007818001FFF44
:10252000C03FE1FF0000000000783C000FFFC07FCB
:10253000F3FF8000000000783C0007FFC0FFFFFFB2
:10254000C000000000783C0003FFC1F87F87E00076
:1025500000000078000001FFC1F03F03E000000030
:102560000078000000FFC1E01E01E01F0003E078DA
:102570003C03F07FC1E01E01E07FC00FF8783C070C
:10258000FC3FC1E01E01E1FFE01FFC783C0FFE1F95
:10259000C1E01E01E3FFF03FFE783C1FFE0FC1E0EB
:1025A0001E01E3F3F83F3E783C3F3F07C1E01E01C8
:1025B000E7E0FC7C1F783C3E1F07C1E01E01E7C03E
:1025C0007C7C0F783C3C0F03C1E01E01E7807C78E7
:1025D0000F783C3C0F03C1E01E01E7803C78007897
:1025E0003C3C0F03C1E01E01E7803C7800783C3C96
:1025F0000F03C1E01E01E7803C7800783C3C0F03EC
:10260000C1E01E01E7C03C7800783C3C0F03C1E00C
:102610001E01E3E03C78007C3C3C0F03C1E01E015E
:10262000E3FF3FF8007FBC3C0F03C1E01E01E1FF68
:102630003FF8003FBFFC0F03C1E01E01E0FF3FF881
:10264000001FBFFC0F03C1E01E01E07F3FF8000F39
:10265000BFFC0F036000000000000000000000004D
:1026600000076000000000000000000000000006FD
:10267000700000000000000000000000000E3800A4
:1026800000000000000000000000001C1E00000010
:10269000000000000000000000780FFFFFFFFFFFB8
:1026A000FFFFFFFFFFFFFFF001FFFFFFFFFFFFFF47
:1026B000FFFFFFFFFF8068747470733A2F2F6D6106
:1026C000726C696E66772E6F726700322E302E370D
:1026D0002E32002020506C616E6E65724275666607
:1026E000657242797465733A2000204672656520F0
:1026F0004D656D6F72793A2000436F6D70696C653E
:10270000643A204E6F7620313920323032300A0060
:10271000204C61737420557064617465643A203292
:102720003032302D31302D3135207C2041757468A8
:102730006F723A20284D61676E75732C20322E30EF
:10274000290A00322E302E372E320A004D61726C6B
:10275000696E0020536F66747761726520526573ED
:1027600065740A00205761746368646F672052655E
:102770007365740A002042726F776E206F75742043
:1027800052657365740A002045787465726E616CD9
:102790002052657365740A00506F77657255700A30
:1027A000006175746F25632E6700473238585900F1
:1027B0004D31303031006572726F722077726974FA
:1027C000696E6720746F2066696C650A00446F6EDD
:1027D0006520736176696E672066696C652E0A00F4
:1027E0004D323900456E6473746F70730025532049
:1027F000256320256320256320256300656E6473AF
:10280000746F7073206869743A200041425300501D
:102810004C4100496E666F2053637265656E0041DE
:10282000646A757374204D657368204865696768CC
:10283000740046696E652054756E6520436C6F7335
:1028400065737400473239205034205400473238C1
:102850000A47323620432050204825692042256906
:102860000056616C696461746520437573746F6DA3
:10287000204D657368004732380A473236204320BE
:10288000502049310056616C6964617465204D6562
:10289000736820282429004732380A4732362043FB
:1028A000205020493000473239204A2569004C65C4
:1028B00076656C204D657368005369646520506FC0
:1028C000696E74730047726964204D657368204CAB
:1028D0006576656C696E6700332D506F696E742084
:1028E0004C6576656C696E6700473239204A300066
:1028F000473239205033205220432E2569004D6144
:102900006E75616C2046696C6C2D696E0046696C51
:102910006C2D696E20416D6F756E74004D65736826
:1029200020696E76616C6964617465642E0A004981
:102930006E76616C696461746520436C6F73657356
:102940007400473239204900496E76616C696461D0
:10295000746520416C6C00436F6E74696E75652000
:10296000426564204D65736800473239205031203C
:10297000430046696C6C2D696E204D65736800429A
:1029800075696C6420437573746F6D204D65736851
:10299000004732380A4D3139302049310A4D313043
:1029A000392049310A4732392050310A4D3130340B
:1029B0002053300A4D313430205330004275696C59
:1029C00064204D65736820282429004732380A4D59
:1029D0003139302049300A4D3130392049300A47E9
:1029E00032392050310A4D3130342053300A4D31C4
:1029F00034302053300047323920256325690A4D91
:102A000031313720004D657368202569204C6F6196
:102A1000646564004D65736820256920536176659F
:102A200064004C6F616420426564204D65736800EA
:102A30004D656D6F727920536C6F74004E6F20532B
:102A4000746F72616765000F280B2846696C2E2031
:102A50004469612E004520696E206D6DC2B300206F
:102A6000082046616374002008204D61780020082A
:102A7000204D696E004175746F74656D7000565419
:102A8000726176204D696E00566D696E00566D61FB
:102A900078204500566D6178205A00566D61782087
:102AA0005900566D6178205800416D6178204500CD
:102AB000416D6178205A00416D6178205900416D67
:102AC0006178205800412D54726176656C00412D6B
:102AD0005265747261637400416363656C00000049
:102AE00020C100000000000000000000754300004D
:102AF00075430000704350726F62653A3A70726FAE
:102B000062655F646F776E5F746F5F7A00206D61DE
:102B1000783A00206D696E3A00417869732000535D
:102B2000657474696E67732053746F7265640020F6
:102B300062797465733B206372632000536574741B
:102B4000696E67732053746F7265642028004E6F3E
:102B500020454550524F4D2E0A00454550524F4D8D
:102B6000206461746173697A65206572726F722E78
:102B70000A003F4D65736820746F6F20626967209B
:102B8000666F7220454550524F4D2E0A0055424CFB
:102B90002072657365740A00206C6F61646564203F
:102BA00066726F6D2073746F726167652E0A004DD7
:102BB00065736820003F43616E277420656E616213
:102BC0006C65200020696E697469616C697A65645E
:102BD0002E0A0A002073746F726564207365747422
:102BE000696E677320726574726965766564202802
:102BF00000202863616C63756C6174656429210A27
:102C00000020213D2000454550524F4D2043524366
:102C1000206D69736D61746368202D202873746F53
:102C2000726564292000496E6465783A2000444941
:102C30004749504F5453204C6F616465640A004407
:102C4000494749504F5453204C6F6164696E670A7D
:102C500000204D61726C696E3D563832290A00457C
:102C60004550524F4D2076657273696F6E206D69C5
:102C7000736D617463682028454550524F4D3D0087
:102C80002E2E2E2800203A2073796E635F706C61BF
:102C90006E5F706F736974696F6E0A00646F5F6254
:102CA0006C6F636B696E675F6D6F76655F746F00E5
:102CB000486F6D65202573257325732046697273EF
:102CC0007400486F6D696E67204661696C656400C9
:102CD0005D002C2000646F5F686F6D696E675F6DCB
:102CE0006F76650047323920503420523939392007
:102CF00054004732380A473239205031004D6F7442
:102D0000696F6E004732392050342058257320599E
:102D100025732052256900202D2D2D2D2D00486F63
:102D20006D696E672058595A00473238004F666601
:102D3000205072696E746572204261636B75700019
:102D400047323920532D31004F75747075742066E9
:102D50006F722043535600473239205431004F756B
:102D60007470757420666F7220486F7374004732F8
:102D7000392054300045646974204D657368004DF6
:102D8000616E75616C6C79204275696C64204D656B
:102D900073680047323920493939390A47323920B6
:102DA0005032204220543000372E20536176652067
:102DB000426564204D65736800362E2046696E6555
:102DC0002054756E6520416C6C00352E2056616C68
:102DD0006964617465204D65736800342E2046690E
:102DE0006E652054756E6520416C6C00332E205644
:102DF000616C6964617465204D65736800322E20D2
:102E0000536D6172742046696C6C2D696E00473297
:102E10003920503320543000312E204275696C64C3
:102E200020436F6C64204D657368004661646520C3
:102E3000486569676874004F7574707574205542F1
:102E40004C20496E666F0047323920570055424C7E
:102E500020546F6F6C73004F7574707574204D65DE
:102E60007368204D6170004D6573682053746F72F4
:102E7000616765004D65736820456469740053742B
:102E800065702D42792D537465702055424C004178
:102E9000637469766174652055424C00473239206D
:102EA0004100446561637469766174652055424CE4
:102EB00000473239204400496E76616C69642065B0
:102EC000787472756465720A0020746F6F206C6F7D
:102ED0006E6720657874727573696F6E20707265A5
:102EE00076656E7465640A0020636F6C6420657893
:102EF00074727573696F6E2070726576656E746535
:102F0000640A003C3C3C00220A00556E6B6E6F77F1
:102F10006E20636F6D6D616E643A202200DB0FC915
:102F20003F45BCDA3F8FB30240FCF0274056946126
:102F300040FE4B9B4084A5D840E0231841346A569C
:102F400041E859974164DBD5416E271742B4B75524
:102F500042CE1A9742C8AED542B5885A43D40684A9
:102F6000BFA65FA7BF7443E0BF10B11AC01C2C58A6
:102F7000C0E8F697C0B849D6C04E4E17C124D35505
:102F8000C1802497C1A0B5D5C1121A17C244AE554D
:102F9000C2781797C26CACD5C267885AC320206329
:102FA000757272656E745F706F736974696F6E3D70
:102FB0000020706F736974696F6E5F7368696674FF
:102FC000203D200020686F6D655F6F6666736574D5
:102FD000203D20003C3C3C207365745F6178697340
:102FE0005F69735F61745F686F6D652800203A20C8
:102FF0000A005D203D20003E20686F6D655F6F66B2
:10300000667365745B002A2A2A205A20484F4D4572
:103010004420574954482050524F424520285A5F77
:103020004D494E5F50524F42455F555345535F5A8D
:103030005F4D494E5F454E4453544F505F50494E8B
:1030400029202A2A2A0A3E2070726F62652E6F6636
:10305000667365742E7A203D20003E3E3E207365E7
:10306000745F617869735F69735F61745F686F6DC6
:103070006528005761726E696E673A20486F6D6906
:103080006E672042756D702044697669736F722097
:103090003C20310A003C3C3C20686F6D65617869DA
:1030A000732800203A203E20414654455220736543
:1030B000745F617869735F69735F61745F686F6D76
:1030C000650A00486F6D65203220536C6F773A0AAD
:1030D000004D6F766520417761793A0A00486F6D3F
:1030E00065203120466173743A0A003E3E3E2068F6
:1030F0006F6D6561786973280050726F62653A3A46
:10310000646F5F7A5F726169736528006465706CD3
:103110006F793A2000203A2050726F62653A3A7314
:1031200065745F6465706C6F7965640A000000A067
:10313000420000A0420000A0410202040000A040A2
:103140000000A0400000004000007F4300007543E5
:1031500000007043FFFFFF000000010000000100BD
:10316000008000555555000000400033333300AA5D
:10317000AA2A004992240000002000C7711C00996F
:10318000991900D1451700555515003BB11300247E
:1031900049120011111100000010000F0F0F00E381
:1031A000380E0043790D00CCCC0C00C3300C00E885
:1031B000A20B0064210B00AAAA0A00703D0A009D20
:1031C000D80900427B090092240900DCD30800885A
:1031D0008808001042080000000800F0C1070087BE
:1031E00087070075500700711C07003EEB0600A121
:1031F000BC06006990060066660600703E06006127
:1032000018060017F4050074D105005BB00500B284
:10321000900500627205005555050078390500B823
:103220001E0500050505004EEC040087D40400A12E
:10323000BD040090A7040049920400C17D0400EE83
:10324000690400C7560400444404005C32040008CA
:1032500021040041100400000004003FF00300F8C6
:10326000E0030026D20300C3C30300CCB503003A39
:10327000A803000A9B0300388E0300C08103009F4F
:10328000750300D0690300505E03001D5303003432
:10329000480300913D03003333030016290300382F
:1032A0001F030097150300300C0300030303000BFA
:1032B000FA020049F10200BAE802005CE002002DC7
:1032C000D802002DD0020059C80200B0C00200315F
:1032D000B90200DAB10200AAAA0200A0A30200BC4F
:1032E0009C0200FA9502005C8F0200DF88020082D7
:1032F000820200457C02002776020027700200430C
:103300006A02007C640200D05E02003F590200C8DD
:10331000530200FFFDFCFAF8F6F4F2F0EEECEAE9F5
:10332000E7E5E3E1E0DEDCDAD9D7D5D4D2D0CFCD02
:10333000CBCAC8C7C5C3C2C0BFBDBCBAB9B7B6B493
:10334000B3B2B0AFADACAAA9A8A6A5A4A2A1A09EF5
:103350009D9C9A99989795949392908F8E8D8B8A35
:103360008988878684838281807F7E7D7B7A797855
:1033700077767574737271706F6E6D6C6B6A696855
:1033800067666564636261605F5E5D5C5B5A595845
:10339000585756555453525150504F4E4D4C4B4A1E
:1033A0004A4948474646454443424241403F3E3EE3
:1033B0003D3C3B3B3A393838373635353433323299
:1033C0003130302F2E2E2D2C2B2B2A292928272740
:1033D00026252524232322212120201F1E1E1D1CDB
:1033E0001C1B1B1A19191818171616151514131368
:1033F00012121111100F0F0E0E0D0D0C0C0B0A0AEC
:103400000909080807070606050504040303020264
:1034100001000024F4D43050C38E20C2A240178291
:103420008B7011127A910D816CD90AA861E108C7DD
:10343000586607615143061E4B5D05C145A7041A36
:10344000411104093D9803713931034036DB0265AF
:10345000339102D4305402802E1D02632CEE01758C
:103460002AC501B028A001102781018F2564012BF6
:10347000244B01E0223401AC211F018D200D01807D
:103480001FFC00841EED00971DDF00B81CD200E673
:103490001BC600201BBC00641AB200B219A8000AA7
:1034A00019A0006A189900D117910040178B00B538
:1034B00016840031167E00B31579003A157300C7E3
:1034C000146F0058146A00EE136600881363002519
:1034D000135E00C7125B006C12570015125400C136
:1034E00011510070114F0021114B00D61049008D71
:1034F0001047004610440002104200C00F400080F8
:103500000F3E00420F3C00060F3B00CB0E380093ED
:103510000E37005C0E3500270E3400F30D3200C16B
:103520000D3100900D3000600D2E00320D2D000584
:103530000D2C00D90C2B00AE0C2900850C29005C49
:103540000C2700350C27000E0C2600E80B2400C4C5
:103550000B2400A00B23007D0B23005A0B21003904
:103560000B2100180B2000F80A1F00D90A1E00BB0F
:103570000A1E009D0A1D00800A1D00630A1C0047E8
:103580000A1B002C0A1B00110A1A00F7091A00DD99
:10359000091900C4091900AB091900920917007B29
:1035A000091800630917004C091600360916002097
:1035B0000916000A091500F5081500E0081400CCEA
:1035C000081400B8081400A4081400900813007D23
:1035D0000812006B08130058081200460812003445
:1035E000081100230811001208110001081100F051
:1035F000071000E0071000D0071000C0071000B04F
:10360000070F00A107100091070E0083070F007439
:10361000070F0065070E0057070E0049070E003B15
:10362000070D002E070E0020070D0013070D0006E2
:10363000070D00F9060C00ED060D00E0060C00D4A5
:10364000060C00C8060C00BC060C00B0060C00A45A
:10365000060B0099060C008D060B0082060B007706
:10366000060B006C060B0061060A0057060B004CA7
:10367000060A0042060A0038060A002E060A00243E
:10368000060A001A060A001006090007060A00FDCD
:10369000050900F4050900EB050900E2050900D958
:1036A000050900D0050900C7050900BE050900B5D8
:1036B000050800AD050800A50509009C0508009453
:1036C0000508008C050800840508007C05080074C6
:1036D0000508006C050700650508005D0507005634
:1036E0000508004E0507004705070040050800389B
:1036F000050700310507002A050700230507001C00
:10370000050600160507000F05070008050600025C
:10371000050700FB040600F5040700EE040600E8B8
:10372000040600E2040700DB040600D5040600CF0F
:10373000040600C9040600C3040600BD040600B761
:10374000040600B1040500AC040600A6040600A0AF
:103750000405009B04060095040500900406008AF9
:1037600004050085040500800406007A0405007540
:10377000040500700405006B040500660405006183
:103780000405005C04050057040500520405004DC3
:1037900004050048040500430405003E0404003A03
:1037A00004050035040500300404002C040500273E
:1037B000040400230405001E0404001A0404001677
:1037C000040500110404000D0404000904050004AC
:1037D00004040000040400FC030400F8030400F4E3
:1037E000030400F0030400EC030400E8030400E415
:1037F000030400E0030400DC030400D8030400D445
:10380000030400D0030400CC030400C8030300C574
:1038100003030024F404D9201BC40C5C0E9804C4D8
:10382000095F0265077101F405F900FB04B3004864
:10383000048700C10369005803550003034500BE17
:10384000023A008402310053022A002902250004B2
:10385000022000E4011C00C8011900AF0117009804
:103860000114008401130071011000610110005166
:10387000010E0043010D0036010B002B010B00204F
:10388000010B00150109000C01090003010800FBF0
:10389000000800F3000800EB000700E4000600DE6B
:1038A000000600D8000600D2000600CC000500C7C4
:1038B000000500C2000500BD000400B9000400B509
:1038C000000400B1000400AD000400A9000400A53C
:1038D000000300A20003009F0004009B0003009867
:1038E0000003009500020093000300900003008D88
:1038F0000002008B000300880002008600020084A2
:10390000000300810002007F0002007D0002007BB6
:1039100000020079000200770001007600020074C6
:1039200000020072000100710002006F0002006DD1
:103930000001006C0002006A0001006900020067DB
:1039400000010066000100650001006400020062E1
:1039500000010061000100600001005F0002005DE5
:103960000001005C0001005B0001005A00010059E9
:1039700000010058000100570001005600010055E9
:1039800000010054000100530000005300010052E8
:1039900000010051000100500001004F0001004EE5
:1039A0000000004E0001004D0001004C0001004BE2
:1039B0000000004B0001004A0001004900010048DE
:1039C00000000048000100470001004600000046DA
:1039D00000010045000000450001004400010043D3
:1039E00000000043000100420000004200010041CD
:1039F00000000041000100400001003F0000003FC6
:103A00000001003E0000003E0001003D0000003DBE
:103A10000001003C0000003C0000003C0001003BB5
:103A20000000003B0001003A0000003A00010039AC
:103A300000000039000100380000003800000038A4
:103A4000000100370000003700010036000000369A
:103A50000000003600010035000000350000003590
:103A60000001003400000034000000340001003385
:103A7000000000330000003300010032000000327B
:103A80000000003200010031000000310000003170
:103A90000001003000000030000000300001002F65
:103AA0000000002F0000002F0000002F0001002E5A
:103AB0000000002E0000002E0001002D0000002D4F
:103AC0000000002D0000002D0001002C0000002C43
:103AD0000000002C0000002C0001002B0000002B37
:103AE0000000002B0000002B0001002A0000002A2B
:103AF0000000002A0000002A00010029000000291F
:103B00000000002900000029000000290001002811
:103B10000000002800000028000000280000002805
:103B200000010027000000270000002700000027F8
:103B300000000027000100260000002600000026EB
:103B400000000026000000260001002500000025DE
:103B500000000025000000250000002500000025D1
:103B600000010024000000240000002400000024C4
:103B700000000024000100230000002300000023B7
:103B800000000023000000230000002300000023A9
:103B9000000100220000002200000022000000229C
:103BA000000000220000002200010021000000218E
:103BB0000000002100000021000000210000002181
:103BC0000000002100010020000000200000002073
:103BD0000000002000000020000000200000002065
:103BE000000000200001001F0000001F0000001F57
:103BF0000000001F0000001F0000001F0000001F49
:103C00000001001E0000001E0000001E0000001E3B
:103C1000000000752A0000C21E0000D413000097A7
:103C20000B00005406000052030000B3010000DC4A
:103C3000000000456E636C6F73757265004F6666B9
:103C4000004F6E0050726F6265205A204F66667397
:103C5000657400416476616E6365642053657474B5
:103C6000696E677300436F6E666967757261746928
:103C70006F6E0046616E2053706565640052657317
:103C8000746F72652044656661756C7473004C6F67
:103C900061642053657474696E67730053746F7246
:103CA000652053657474696E67730050726568654A
:103CB0006174202420436F6E660052756E6F7574B8
:103CC0002053656E736F7200424C546F75636800C9
:103CD00053746F70004368616E6765204D65646959
:103CE00061004D3231004D6978657200526573751F
:103CF0006D65205072696E74004E6F204D65646969
:103D0000610054756E650053746F70205072696E57
:103D100074005061757365205072696E740053743D
:103D2000617274205072696E74001FE020102010C0
:103D30002010102010202010201030300840048067
:103D400003001FE03FF03FF03FF01FE01FE03FF0B7
:103D50003FF03FF00FC0078003003FFFF0380070D6
:103D600030FC3020FC102078102030102C00D02E99
:103D700031D02F7BD02F7BD02E31D02C00D02030D3
:103D80001020781020FC1030FC303800703FFFF01D
:103D90003FFFF03800703186302387102787902F3F
:103DA00087D02F03D02030102078102078102030BA
:103DB000102F03D02F87D02787902387103186308C
:103DC0003800703FFFF01FFFF81FFFF8041040029B
:103DD00008200208200410400820801041001041F3
:103DE000000820800410400000001FFFF81FFFF8AB
:103DF0002568753A25303268750025687564202578
:103E0000303268753A253032687500202020202035
:103E10002020004D780025532025643B256425256E
:103E200020000900000A010008000A01000A090038
:103E300000000A000800313E2C3E273E223E25535A
:103E40002025692F2569002020443D002020423D87
:103E5000004C534620526573756C747320413D00CD
:103E6000726F746174696F6E206D61747269783AF3
:103E70000A00616674657220726F746174696F6E96
:103E8000203D205B005D2020202D2D2D3E20006256
:103E900065666F726520726F746174696F6E203D24
:103EA000205B005D0A0062656420706C616E6520B5
:103EB0006E6F726D616C203D205B00436F756C64AA
:103EC000206E6F7420636F6D706C657465204C5349
:103ED00046210020202066696E616C203E3E3E2D0A
:103EE0002D2D3E2000202020636F7272656374695F
:103EF0006F6E3A2000292020206D65617375726510
:103F0000643A2000292020206C6F676963616C3A55
:103F100020280054696C74696E67206D6573682091
:103F2000706F696E7420003F4572726F72207072FC
:103F30006F62696E6720706F696E742E2041626FC8
:103F40007274696E67206F7065726174696F6E2E2E
:103F50000A00255320332F330054696C74696E674F
:103F6000206D6573682028332F33290A00255320DC
:103F7000322F330054696C74696E67206D65736805
:103F80002028322F33290A00436F727265637465EB
:103F9000645F5A3D0054696C74696E6720506F69A4
:103FA0006E7400255320312F330054696C74696E90
:103FB00067206D6573682028312F33290A0020455A
:103FC0003A00205A3A0020593A0000002200250009
:103FD00028002B002E0031003400020100000501F2
:103FE00008010B0100002100240027002A002D00F9
:103FF0003000330001010000040107010A0105053A
:104000000505070508080808020202020A0A08084E
:10401000040404040101010101010101030303037C
:1040200003030303040707070C0C0C0C0C0C0C0C0B
:104030000202020206060606060606060B0B0B0B1C
:104040000B0B0B0B01021020200808102040102041
:10405000408002010201080402010102040810204C
:10406000408080402010080402018004020180404A
:1040700020100804020108040201010204081020B3
:104080004080010204081020408020436F756E7448
:1040900020583A00453100626564002C2073797322
:1040A00074656D2073746F7070656421204865615C
:1040B0007465725F49443A200048656174696E67AF
:1040C000204661696C65640048656174696E6720AB
:1040D0006661696C656400202D20496E76616C69AB
:1040E00064206578747275646572206E756D6265A2
:1040F0007220210A00544845524D414C2052554EE1
:104100004157415900546865726D616C2052756E5B
:1041100061776179004572723A204D415854454D9E
:1041200050004D415854454D502074726967676581
:10413000726564004572723A204D494E54454D50A7
:10414000004D494E54454D50207472696767657241
:10415000656400204A002052004D65736820736139
:1041600076656420696E20736C6F7420003F556E15
:1041700061626C6520746F2073617665206D657374
:104180006820646174612E0A0020736C6F743D00B6
:10419000206D65736865735F656E643D00453245EB
:1041A0004E443D00206D65736820736C6F747320FE
:1041B000617661696C61626C652E0A003F496E76BA
:1041C000616C696420736C6F742E0A004D657368AE
:1041D000206C6F616465642066726F6D20736C6F14
:1041E0007420003F556E61626C6520746F206C6FA7
:1041F0006164206D65736820646174612E0A0072C9
:10420000657365745F6265645F6C6576656C0A00F2
:1042100048617264636F6465642044656661756CAF
:10422000742053657474696E6773204C6F616465A4
:10423000640A00556E696669656420426564204CB5
:104240006576656C696E67003B200020204D343137
:104250003220530046696C616D656E742072756E14
:104260006F75742073656E736F723A0020204D383D
:1042700035312058005A2D50726F6265204F6666A6
:104280007365740020204D33303420500020204DC1
:104290003330312050005049442073657474696E86
:1042A00067733A0020460020480020204D31343505
:1042B0002053004D6174657269616C20686561749A
:1042C000757020706172616D65746572733A00205B
:1042D0006D65736865732E0A0A00454550524F4D4F
:1042E0002063616E20686F6C64200041637469769E
:1042F00065204D65736820536C6F743A2000202050
:104300004D34323020530020204D323036205800BA
:10431000486F6D65206F66667365743A0020204DA6
:10432000323035204200416476616E6365643A2024
:10433000423C6D696E5F7365676D656E745F74692D
:104340006D655F75733E20533C6D696E5F66656594
:1043500064726174653E20543C6D696E5F74726175
:1043600076656C5F66656564726174653E204A3C83
:104370006A756E635F6465763E0020204D3230348E
:10438000205000416363656C65726174696F6E20D3
:1043900028756E6974732F7332293A20503C7072FD
:1043A000696E745F616363656C3E20523C72657434
:1043B000726163745F616363656C3E20543C747228
:1043C0006176656C5F616363656C3E0020204D32F1
:1043D00030312058004D6178696D756D20416363FF
:1043E000656C65726174696F6E2028756E6974738F
:1043F0002F7332293A0020204D3230332058004D9F
:104400006178696D756D2066656564726174657348
:104410002028756E6974732F73293A005374657080
:10442000732070657220756E69743A0020204D32D9
:1044300030302053002044697361626C65640A0067
:1044400046696C616D656E742073657474696E671E
:10445000733A0020204D3134392043203B20556EE3
:1044600069747320696E2043656C736975730A0003
:1044700020286D6D29002020473231202020203B4C
:1044800020556E69747320696E206D6D000000FA0E
:10449000430000FA430000A040000034420000A0A6
:1044A000420000A0420000C8430000D743E80300D8
:1044B00000E803000064000000D00700003F45450D
:1044C00050524F4D2073746F72616765206E6F7428
:1044D00020617661696C61626C652E0A00466164D8
:1044E00065204865696768742000426564204C65F2
:1044F00076656C696E6720004661696C656420743E
:104500006F20656E61626C6520426564204C657643
:10451000656C696E670A00496E76616C6964206D2E
:104520006573682E0A0076616C69640A53746F7251
:1045300061676520736C6F743A20004D6573682065
:10454000697320003F496E76616C69642073746FF3
:104550007261676520736C6F742E0A003E3E3E00E8
:10456000202864697361626C6564290A0055424CB5
:104570002041646A7573746D656E74205A005A2008
:10458000466164653A20002028656E61626C65644E
:10459000290A0041626F76650053616D65205A20DB
:1045A00061730042656C6F77004175746F204265DE
:1045B00064204C6576656C696E673A2055424C0004
:1045C000204E6F7A7A6C65290A00202620002D4340
:1045D000656E746572002D46726F6E74002D4261B7
:1045E000636B002028416C69676E656420576974AD
:1045F000680020284D6964646C650020284C65665D
:104600007400202852696768740050726F62653ABE
:1046100020424C544F5543480A004D616368696E0F
:104620006520547970653A204361727465736961DD
:104630006E0A005A2050726F6265205061737420B8
:104640004265640A005A2050726F6265205061739F
:10465000742042656400203A20686F6D655F7A5F60
:10466000736166656C790A00202064657374696EF5
:104670006174696F6E3D00686F6D655F7A5F73612D
:1046800066656C79005261697365205A20286265FD
:10469000666F726520686F6D696E67292062792088
:1046A000003E20686F6D696E67206E6F74206E65C6
:1046B000656465642C20736B69700A00204D393283
:1046C00020580020496E76616C69642065787472A8
:1046D00075646572200050726F6265204F66667364
:1046E00065742058004361703A003F5A206F75741A
:1046F000206F662072616E67652028003F59206F29
:104700007574206F662072616E676520282D003FEA
:1047100058206F7574206F662072616E676520285F
:104720002D00646F6E650A00496E73756666696375
:1047300069656E7420646174610A00457874726101
:10474000706F6C6174696E67206D6573682E2E2EB4
:10475000002C79693D002C78315F693D00206F7530
:1047600074206F6620626F756E647320696E207AA4
:104770005F636F7272656374696F6E5F666F725F9D
:10478000785F6F6E5F686F72697A6F6E74616C5F6D
:104790006D6573685F6C696E65287278303D00786E
:1047A000315F69007969002C2079315F693D002C07
:1047B0002078693D00206F7574206F6620626F75E8
:1047C0006E647320696E207A5F636F7272656374C2
:1047D000696F6E5F666F725F795F6F6E5F7665722D
:1047E000746963616C5F6D6573685F6C696E652881
:1047F0007279303D0078690079315F6900424C542C
:104800006F75636820436F6D6D616E64203A00427E
:104810004C546F75636820536574204D6F64652038
:104820002D2000636F6E666967206D6F6465202DB3
:10483000204F440A006C6173745F77726974746509
:104840006E5F6D6F6465202D2000626C746F756300
:10485000682E6465706C6F795F70726F63282920B1
:10486000656E640A00424C546F75636820414C4188
:10487000524D206F7220545249474745522061667D
:10488000746572204445504C4F592C207265636FFB
:10489000766572696E670A00424C546F75636820D2
:1048A0004445504C4F592072657175657374656449
:1048B0000A000000803F0000E04100005C42000070
:1048C000A4420000DA420000084300002343000035
:1048D0003E4300005943000074438202CE0111247C
:1048E0001FBECFEFD1E2DEBFCDBF00E00CBF13E0B3
:1048F000A0E0B2E0E4E7F2E203E00BBF02C0079001
:104900000D92A236B107D9F728E1A2E6B3E001C0C3
:104910001D92AD32B207E1F714E2CEE6D4E200E038
:1049200006C021970109802FFE010F94268CCD36F9
:10493000D10780E00807A9F70F94C7760D94289156
:104940000C9400002F923F924F925F926F927F9251
:104950008F929F92AF92BF92CF92DF92EF92FF928F
:104960000F931F93CF93DF93CDB7DEB7ED970FB6BD
:10497000F894DEBF0FBECDBF8DAF20916C032CAF7E
:1049800021E020936C03809122188D3409F480C3B8
:10499000843511F40C948D36873411F00C94BC36A8
:1049A00080912018909121188B31910509F41FC135
:1049B000B4F48430910534F482309105DCF597FF2E
:1049C0002DC062C38531910511F40C94BE368A3135
:1049D000910509F408C1049709F056C3C6C08A328C
:1049E000910509F49FC254F48D31910509F49AC1DF
:1049F0000CF494C14E9709F499C146C38B359105C7
:104A000009F40DC28C35910509F40EC28A35910561
:104A100009F03AC310926B030C94BE36809148089B
:104A2000813011F00C94BE360F9448630E9413ED50
:104A30000C94BE3620914808213011F00C94BE36FB
:104A400011E0029709F010E00F94486319821A826E
:104A50001B821C821D821E821F82188682E50E9494
:104A6000B84A882309F44BC00E94314A6B017C018B
:104A700020E030E0A9010F942B85882309F455C06C
:104A80008091740290917502A0917602B0917702A4
:104A900088AB99ABAAABBBAB8091780290917902BD
:104AA000A0917A02B0917B0288AF99AFAAAFBBAF59
:104AB0008090490590904A05A0904B05B0904C0518
:104AC00040904D0550904E0560904F0570905005F8
:104AD000A501940168A979A98AA99BA90F942B859E
:104AE00081110C94C736A301920168AD79AD8AADEE
:104AF0009BAD0F942B858823C1F00C94C73689E4B5
:104B00000E94B84A882331F00E94314A69837A832F
:104B10008B839C838AE40E94B84A882331F00E94E8
:104B2000314A6D837E838F83988720E030E0A9012E
:104B300069817A818B819C810F942B8581110C94E2
:104B40007B3720E030E0A9016D817E818F819885DF
:104B50000F942B8581110C947B370E94EA3D8CEFDA
:104B600096E00E94C03D0C94BE3680E50E94B84A93
:104B7000882329F00F94655E6B017C0103C0C12C72
:104B8000D12C760183E50E94B84A882361F00E9407
:104B9000314A20E030E04AE754E40F9491850F94C5
:104BA000B48D6B017C010F94DB168091F3058111AC
:104BB00005C060E082E197E00E94F7C10E94E2CB6D
:104BC000C60ED71EE81EF91E0E94E2CBDC01CB0107
:104BD0008C199D09AE09BF09B7FD02C00C94BE3601
:104BE0000E949740F1CF0E9465690C94BE3687E021
:104BF0000E9495EA81110C94BE368CE0E3E9F2E064
:104C0000DE01119601900D928A95E1F760E070E067
:104C100080E50F94175E40E050E068EC72E44CA72A
:104C20005DA76EA77FA740E050E060EA70E448A768
:104C300059A76AA77BA7813019F0823039F029C0C3
:104C4000BE01685D7F4FCE01099658C029853A851F
:104C50004B855C8560917C0270917D0280917E0223
:104C600090917F020F94418C6B017C0120E030E039
:104C700040E753E40F942B8587FD06C0C12CD12C4F
:104C8000F0E7EF2EF3E4FF2ECC8EDD8EEE8EFF8E5E
:104C900030C020E030E040E050E460917C02709150
:104CA0007D0280917E0290917F020F94418C7B0166
:104CB0008C0120E030E040E753E40F94A18E1816F9
:104CC00024F4E12CF12C00E713E4A984BA84CB840A
:104CD000DC849701A801B501C6010F94A18E1816B6
:104CE00014F475018601C701D8018C8F9D8FAE8F9A
:104CF000BF8FBE01685D7F4FCE014C960E9495F834
:104D0000AE01445D5F4FBE016B5F7F4FCE010196E8
:104D10000E942EF90E9468EC0C94BE360F949E5EA1
:104D20000C94BE360E94AA500C94BE362091DB171C
:104D30003091DC174091DD175091DE1760917402BD
:104D40007091750280917602909177020F94418C58
:104D5000AB01BC0188E50E94325F69837A838B8353
:104D60009C832091DF173091E0174091E11750911B
:104D7000E217609178027091790280917A029091A5
:104D80007B020F94418CAB01BC0189E50E94325F2C
:104D90006D837E838F839887BE016B5F7F4FCE01CB
:104DA00001960E94554B882311F40C94BE3680E086
:104DB0000E94F64E0E94A5EB61E085E40E947268B5
:104DC00001E021E041E0682FCE0101960E942958C0
:104DD0006B017C019B01AC010F948E8F811119C076
:104DE00049815A816B817C8185E297E00E9417405E
:104DF0004D815E816F81788580E297E00E94174047
:104E0000B701A6018BE197E00E9417408AE00E945B
:104E1000AE3D0E948CEB0E9468EC0C94BE368FE095
:104E200080936B030C94BE366EED262E62E0362E18
:104E30007FE1E72E7FE0F72EA4E7B2E0B9ABA8ABA5
:104E4000EEE0CE2EE2E1DE2E00E010E0F1018191F5
:104E50001F010E94B84A882309F44AC00E94314ABF
:104E60002B013C01133049F0D6012D913D914D911C
:104E70005C910F94408C2B013C01E8A9F9A9208199
:104E8000318142815381C301B2010F94408C4B01A7
:104E90005C012DEB37E346E855EB0F94A18E87FDBF
:104EA0000AC02DEB37E346E855E3C501B4010F9482
:104EB0002B851816ECF4133051F440928002509276
:104EC0008102609282027092830201E011C0A5010A
:104ED0009401D7016D917D918D919C910F94418C9E
:104EE000F7016083718382839383812F0F94101C59
:104EF0001F5FF4E0EF0EF11C28A939A92C5F3F4F8A
:104F000039AB28AB34E0C30ED11C143009F09ECF6E
:104F1000002321F080E892E00F94871A0E9468EC49
:104F20000C94BE3680914808813011F00C94BE3646
:104F300089E40E94B84A082F882321F00E942D4A54
:104F4000E82E01C0E12C8AE40E94B84A182F882379
:104F500021F00E942D4AF82E01C0F12C002319F0F7
:104F600089E08E1528F0112349F099E09F1530F45F
:104F70008DE297E00E94C03D0C94BE3680E1E4E7EC
:104F8000F2E0A9E4B5E001900D928A95E1F70023E3
:104F900059F08E2D0E9448506093490570934A0540
:104FA00080934B0590934C05112359F08F2D0E944F
:104FB000485060934D0570934E0580934F05909334
:104FC000500560E080E50E9472688823C1F10023EB
:104FD000D1F02091DB173091DC174091DD17509113
:104FE000DE176091490570914A0580914B059091BB
:104FF0004C050F94408C6093490570934A0580934B
:105000004B0590934C051123D1F02091DF1730917F
:10501000E0174091E1175091E21760914D057091B2
:105020004E0580914F05909150050F94408C6093F0
:105030004D0570934E0580934F059093500540E0C9
:1050400050E0BA0186E40E94325F6B017C0120E0EF
:1050500030E0A9010F94A18E18164CF420E030E046
:1050600040E752E4C701B6010F943B8D03C060E0F6
:1050700070E0CB0169837A838B839C83CE01019698
:105080000E941EF60C94BE360F94A6130C94BE36E6
:1050900080912018909121188737910511F40C9474
:1050A00056300CF0DFC08D34910509F4A6C40CF025
:1050B00052C08931910509F4B6C21CF584319105BD
:1050C00009F450C27CF48131910509F437C22CF403
:1050D000029708F4D6C10C948A36429709F43EC66A
:1050E0000C948A368631910509F471C20CF46BC2B6
:1050F0008731910509F475C2489709F487C20C9469
:105100008A368E31910509F410C3ACF48B319105C8
:1051100009F4B0C20CF4A0C28C31910509F4FDC2AF
:105120004D9711F00C948A368091A9148E7F80934C
:10513000A9140C94BE368032910509F457C30CF4BF
:1051400098C38B34910509F43FC48C34910509F45C
:105150003FC40C948A368B36910509F4EDC40CF0EB
:1051600045C08535910509F430C65CF58235910559
:1051700009F4E4C5E4F48135910511F00C948A3604
:105180000F94674F0E9478B70F94EB160E94F03B84
:1051900068EE73E080E090E00E94413B0E94F63BA5
:1051A00060E082E598E00E94F7C10C94BE3683353A
:1051B000910509F4CBC58435910509F4CFC50C944C
:1051C0008A368836910509F41CC434F48C3591056F
:1051D00009F41EC60C948A368936910509F455C423
:1051E0008A36910509F465C40C948A368037910596
:1051F00009F40DC584F48D36910509F423C40CF42B
:1052000000C58E36910509F4A5C48F36910509F4C1
:10521000B4C40C948A368337910509F483C68CF4A0
:105220008137910509F4FAC48237910511F00C9485
:105230008A360F94684B88E293E10F9437570C94A9
:10524000BE368537910509F4EFC68637910511F012
:105250000C948A3600911E1810911F1894E0F12CBE
:1052600040E008C78E32A1E09A0711F40C94F234A2
:105270000CF074C0893C910511F40C94803154F504
:105280008B39910509F432C584F48937910509F405
:1052900018C70CF40EC78C38910509F4E4C48139A1
:1052A000910509F415C70C948A36843A910509F4DE
:1052B000ABC734F4833A910509F47EC70C948A365F
:1052C0008E3B910509F4F0C4883C910509F4AFC701
:1052D0000C948A36833D910511F40C941B32F4F43E
:1052E0008C3C910511F40C94C2313CF48B3C91053B
:1052F00011F40C94A3310C948A368D3C910511F471
:105300000C94F3318E3C910511F00C948A3616E71B
:10531000E12E16E0F12E10E00C9409328831E1E024
:105320009E0711F40C94543364F48C3D910511F4F0
:105330000C94D8328D3D910511F40C94FF320C94ED
:105340008A368C3221E0920711F40C94EB338D32C3
:10535000914011F40C9400340C948A368C3AA1E0FC
:105360009A0711F40C94E035F4F58239E1E09E07D8
:1053700011F40C943C35D4F4803321E0920711F4FD
:105380000C947F3414F40C9436358039A1E09A07DC
:1053900011F40C9439358139914011F00C948A360E
:1053A0000E94514B0E9468EC0C94BE368C39E1E0AF
:1053B0009E0711F40C9441354CF48A39914011F058
:1053C0000C948A360E94AB3B0C94BE36843A31E092
:1053D000930711F40C944735853A914011F40C94DD
:1053E0004A350C948A36883FB1E09B0711F40C943F
:1053F00045362CF5853FF1E09F0711F40C943F36BC
:105400004CF4843F914011F00C948A360E9450DE97
:105410000C94BE36863FA1E09A0711F40C944236F4
:10542000873F914011F00C948A3661E083E50E9439
:10543000726891E089270F94F05A0C94BE36803A36
:10544000E3E09E0709F407C27CF48C3022E0920767
:1054500011F40C9455368335934011F00C948A3630
:105460000F94F9630C94BE36873EA3E09A0711F4BB
:105470000C946236893E934011F40C9470360C946F
:105480008A3680E50E94B84A882329F00F94655E29
:105490006B017C0103C0C12CD12C760183E50E94F5
:1054A000B84A882361F00E94314A20E030E04AE7A0
:1054B00054E40F9491850F94B48D6B017C010F948B
:1054C000DB1680911E1890911F18009721F061E063
:1054D0000E948BC205C060E086E497E00E94F7C19D
:1054E00010916C0383E080936C0381E080931F062E
:1054F000C114D104E104F10431F00E94E2CBC60EE4
:10550000D71EE81EF91E80911F06882311F40C9403
:105510009237C114D104E104F10411F40C948E37D4
:105520000E94E2CBDC01CB018C199D09AE09BF09B9
:10553000B7FF02C00C948E370C94923780912318D9
:1055400084FF02C00C949A378091251887FF02C00F
:105550000C949A3780912618837011F00C949A3726
:105560000C94B2378091A91483FF25C081E797E09E
:105570000E94C03D8091A91483FF17C084E992E185
:105580000E9410808BE1E4E9F2E1DE0111960190C6
:105590000D928A95E1F760E070E0CE0101960E94DD
:1055A00027B3CE0101960E94058282E697E00E9411
:1055B000C03D0C94BE360E94EE3D82E897E00E940A
:1055C000C03D0C94BE360E942CB00C94BE360E9496
:1055D00070AF8091A914877F80628093A9140C9486
:1055E000BE36E0911E18F0911F188081882329F0A3
:1055F000803209F410823196F8CF60E080911E1855
:1056000090911F180E940FB20C94BE360E94D03B9E
:10561000882321F00E947FAF0E9454B780E00E944F
:10562000AEC20C94BE368091A91482FF03C08B7F5A
:105630008093A91480912F06813081F782E08093B6
:105640002F060E94E2CB60932B0670932C0680936A
:105650002D0690932E06E2CF8091A91483FD02C0FF
:105660000C94BE3683E50E94B84A81110C94BD3774
:105670000C94BE3683E40E946A4A882319F186E9B5
:1056800097E00E94C03D80913E12882391F0BE01B8
:105690006F5F7F4F8BE392E10E940B828E010F5F61
:1056A0001F4FF80181918F01882339F00E94AE3D90
:1056B000F8CF8CE897E00E94C03D8AE00E94AE3DA2
:1056C0000C94BE368091A91482FF21C085EA97E030
:1056D0000E94C03D6091A5147091A6148091A714FA
:1056E0009091A8144AE00E94DC3E8FE20E94AE3DF9
:1056F0006091A1147091A2148091A3149091A414AC
:105700004AE00E94DC3E0E946B400C94BE3687EB60
:1057100097E00E94C03D0C94BE3680911E18909177
:105720001F180E94C7B10C94BE368091A91483FD46
:1057300002C00C94BE360F948F138091A91483FD80
:1057400002C00C94BE3640911E1850911F18BE0125
:10575000645E7F4F80E00F94EF4D8C01009711F451
:105760000C94BE366C8D7D8D19821C8222E0AC01BA
:10577000CE0101960E94C985811102C0F12C14C08E
:10578000CE0101960F945D4D8823C1F361E0CE01F7
:1057900001960E94AD81009789F325EEDC012C93E0
:1057A0001C820E94CA80F82ECE0101960E940582BA
:1057B000B801FF2089F080EE97E00E94D73D8AE093
:1057C0000E94AE3D1092A5141092A6141092A71438
:1057D0001092A8140C94BE3688EC97E00E94D73D36
:1057E00082E49BE10E94C03D0C94BE368091A914D6
:1057F00082FD0F94DB168091A91483FD02C00C94E6
:10580000BE3660E080E50E947268182F682F809194
:105810001E1890911F180E940FB283E50E94B84A8B
:10582000882381F00E941D4AAB01BC014093A5145E
:105830005093A6146093A7147093A8148BE392E17D
:105840000E94217E0E947FAF11110C94BE360E94EF
:1058500054B70C94BE3620911E1830911F189091A9
:10586000A91492609093A914C9010E94C7B10C9425
:10587000BE360E9405B77B018C0120E831E541E08E
:1058800050E00F94818BC9016DE671E00F94FE8B9F
:105890004B015C01C801B70120E13EE040E050E06F
:1058A0000F94818BCA01B90128E130E040E050E05B
:1058B0000F94818B762E672EC62ED72E5CE3252E75
:1058C000312C412C512CC801B701A20191010F9438
:1058D000818BF62EE72ECA01B901A20191010F9426
:1058E000818BCB018E010F5F1F4F8114910499F0C2
:1058F000EF92FF927F936F936F927F92BF92AF92DE
:105900009F928F928EEE97E09F938F931F930F93AA
:105910000F94C38413C0A114B104B1F0EF92FF92AD
:105920007F936F936F927F92BF92AF9282EF97E0D7
:105930009F938F931F930F930F94C3840FB6F89484
:10594000DEBF0FBECDBF30C0CD2879F0EF92FF9201
:105950007F936F936F927F9286EF97E09F938F93E1
:105960001F930F930F94C384E9CF892B69F0EF92B3
:10597000FF927F936F938AEF97E09F938F931F938C
:105980000F930F94C384DACFEF92FF928EEF97E0DC
:105990009F938F931F930F930F94C3840F900F9037
:1059A0000F900F900F900F9060E0C8010E948BC283
:1059B0000E94EE3DB80182E098E00E94D73D8AE067
:1059C0000E94AE3D0C94BE360E9454B70C94BE3675
:1059D00080912F06813011F00C94BE3682E08093C6
:1059E0002F060E94E2CB60932B0670932C068093C7
:1059F0002D0690932E060C94BE360E9478B70C9418
:105A0000BE368091C30E83FF02C00C94BE3689E47B
:105A10000E94B84A882311F40C94CE370E944E6835
:105A200090E01816190614F481E090E026E0289F13
:105A3000F001299FF00D1124E951F84E80819181E8
:105A40000C94D8378091C30E83FF02C00C94BE36ED
:105A500089E40E94B84A082F882311F40C94E13796
:105A60000E944E6890E01816190614F481E090E048
:105A700026E0289FF001299FF00D1124E951F84EEE
:105A80008081918110E00C94F1370F94EE5D182F16
:105A900087FD0AC08EEB91E10E94C03D812F0E94DC
:105AA000CA868AE00E94AE3DBCADB0936C030C94F4
:105AB000E13980E50F94D913F82EE2E0E81710F4ED
:105AC0000C94BE3681E40E946A4A882329F06091D2
:105AD0009C08062F10E002C00FEF10E089E40E943E
